:100000000C9491040C94DE040C94AE040C94AE0495
:100010000C94AE040C94AE040C94AE040C94AE0498
:100020000C94AE040C94AE040C94AE040C94AE0488
:100030000C94AE040C94C7040C94AE040C94AE045F
:100040000C94B0040C94AE040C94AE040C94AE0466
:100050000C94AE040C94AE040C94AE040C94AE0458
:100060000C94AE040C94AE04007C0001C600038323
:10007000000703800E01C01E01E01E01E03E01F0FA
:100080003E00F03C00F03C00F87C00F87C00F87C7E
:1000900000F87C00F87C00F87C00F87C00F87C001C
:1000A000F87C00F87C00F83C00F03C00F03C00F0EC
:1000B0003E01F01E01E01E01E00E01C007038007B3
:1000C0000300018E0000F80000180000780001F81D
:1000D0000007F8000CF800007800007800007800B5
:1000E00000780000780000780000780000780000B8
:1000F0007800007800007800007800007800007830
:100100000000780000780000780000780000780097
:100110000078000078000078000078000078000087
:10012000780000FC0007FF8001F80007FE000FFFC9
:10013000801C1FC03007C02003E06003E04001E0E6
:100140000001E00001E00001E00001C00001C0008A
:100150000380000380000300000600000E00000C76
:100160000000180000300000600000C000008000A7
:100170000100000200080400180C00301FFFF03FCF
:10018000FFF0FFFFE0FFFFE001F80007FE000FFFB8
:10019000000C3F00100F80200F80000780000780B8
:1001A000000700000700000600000C000018000017
:1001B000380000FE0003FF80003FC0000FC00003B6
:1001C000E00001E00001E00000E00000E00000E0ED
:1001D0000000E00000C00001C00001807803007E44
:1001E0000E007FF8001FE00000038000078000077A
:1001F00080000F80001F80003780003780006780FC
:1002000000C78000C780018780030780030780063E
:1002100007800C0780180780180780300780600768
:1002200080600780FFFFF8FFFFF8FFFFF8FFFFF88F
:10023000000780000780000780000780000780001B
:10024000078000078000078000FFF001FFE001FF4A
:10025000E003FFC00300000600000600000C0000E1
:100260000F80001FE0001FF8003FFE0001FF0000AC
:100270003F80001F800007C00003C00003E00001B2
:10028000E00001E00000E00000E00000E00000C04D
:100290000000C00001C00001803003007C06007E29
:1002A0000C003FF0001FC0000001F0000F80003E76
:1002B00000007C0000F00001F00003E00007C00037
:1002C0000F80000F80001F80001F00003F1F003FB5
:1002D000FFC03F87E07F03F07E01F07E01F07C01EC
:1002E000F87C00F87C00F87C00F87C00F83C00F812
:1002F0003C00F03E00F01E00F01E01E00F01C007C0
:10030000838003C70000FC000FFFF81FFFF81FFFEA
:10031000F01FFFF038003030006060006040006087
:100320000000C00000C00000C0000180000180008B
:100330000180000300000300000300000600000627
:1003400000000600000C00000C00000C000018006B
:1003500000180000180000300000300000300000DD
:10036000600000600000600000FC000383000601E4
:10037000800C01C01C00E01C00E01C00E01E00E03E
:100380001E00E01F01C00F81800FC38007E600033D
:10039000FC0001FC0000FE0000FF0003BF80061F00
:1003A000C00E07E01C03E01C03F03801F03800F039
:1003B0003800703800703800701C00601C00E00EBF
:1003C00001C007830001FC0000FC00038F00070749
:1003D000800E03C01E01E03C01E03C01F07C00F017
:1003E0007C00F07C00F87C00F87C00F87C00F87E53
:1003F00000F83E01F83E01F83F01F81F87F00FFDBD
:10040000F003E3F00003E00003E00007C00007C0D2
:10041000000F80001F00001E00003C00007800015B
:10042000F00007C0003E00000010386CC6C6FE0099
:100430000010386CC6C6FE000010386CC6C6FE0040
:100440000010386CC6C6FE000010386CC6C6FE0030
:100450000010386CC6C6FE000010386CC6C6FE0020
:100460000010386CC6C6FE000010386CC6C6FE0010
:100470000010386CC6C6FE000010386CC6C6FE0000
:100480000010386CC6C6FE000010386CC6C6FE00F0
:100490000010386CC6C6FE000010386CC6C6FE00E0
:1004A0000010386CC6C6FE000010386CC6C6FE00D0
:1004B0000010386CC6C6FE000010386CC6C6FE00C0
:1004C0000010386CC6C6FE000010386CC6C6FE00B0
:1004D0000010386CC6C6FE000010386CC6C6FE00A0
:1004E0000010386CC6C6FE000010386CC6C6FE0090
:1004F0000010386CC6C6FE000010386CC6C6FE0080
:100500000010386CC6C6FE000010386CC6C6FE006F
:100510000010386CC6C6FE000010386CC6C6FE005F
:100520000010386CC6C6FE00303018000000000015
:100530000000780C7CCC7600E060607C6666DC00B5
:10054000000078CCC0CC78001C0C0C7CCCCC7600A5
:10055000000078CCFCC07800386C64F06060F0007B
:10056000000076CCCC7C0CF8E0606C766666E60029
:1005700030007030303078000C001C0C0CCCCC7883
:10058000E060666C786CE6007030303030307800B7
:100590000000CCFEFED6D6000000B8CCCCCCCC00FF
:1005A000000078CCCCCC78000000DC66667C60F083
:1005B000000076CCCC7C0C1E0000DC766260F00083
:1005C00000007CC0701CF8001030FC303034180083
:1005D0000000CCCCCCCC76000000CCCCCC78300069
:1005E0000000C6C6D6FE6C000000C66C386CC600A3
:1005F0000000CCCCCC7C0CF80000FC983064FC00F3
:100600001C3030E030301C00181818001818180082
:10061000E030301C3030E00076DC000000000000EC
:100620000010386CC6C6FE007CC6DEDEDCC07C0076
:100630003078CCCCFCCCCC00FC66667C6666FC00DA
:100640003C66C0C0C0663C00F86C6666666CF8002C
:10065000FE6268786862FE00FE6268786860F0009A
:100660003C66C0C0CE663A00CCCCCCFCCCCCCC0036
:1006700078303030303078001E0C0C0CCCCC780048
:10068000E6666C786C66E600F06060606266FE00AC
:10069000C6EEFEFED6C6C600C6E6F6DECEC6C6006E
:1006A000386CC6C6C66C3800FC66667C6060F000BC
:1006B0007CC6C6C6D67C0E00FC66667C6C66E60010
:1006C0007CC6E0780EC67C00FCB430303030780058
:1006D000CCCCCCCCCCCCFC00CCCCCCCCCC783000B2
:1006E000C6C6C6C6D6FE6C00C6C66C386CC6C6008A
:1006F000CCCCCC7830307800FEC68C183266FE0048
:100700007860606060607800C06030180C0602009D
:10071000781818181818780010386CC600000000F7
:1007200000000000000000FF0000000000000000CA
:10073000183C3C18180018006C6C6C00000000009D
:100740006C6CFE6CFE6C6C00187EC07C06FC1800A5
:1007500000C6CC183066C600386C3876DCCC760023
:100760003030600000000000183060606030180019
:10077000603018181830600000663CFF3C660000CE
:100780000018187E1818000000000000001818302B
:100790000000007E000000000000000000181800AB
:1007A000060C183060C080007CCEDEF6E6C67C0009
:1007B000307030303030FC0078CC0C3860CCFC002D
:1007C00078CC0C380CCC78001C3C6CCCFE0C1E0099
:1007D000FCC0F80C0CCC78003860C0F8CCCC7800A9
:1007E000FCCC0C183030300078CCCC78CCCC7800F5
:1007F00078CCCC7C0C187000001818000018180079
:100800000018180000181830183060C06030180048
:1008100000007E007E0000006030180C1830600080
:100820003C660C181800180000407A10F35A00A01B
:10083000724E18090010A5D4E80000E876481700A9
:1008400000E40B54020000CA9A3B000000E1F505E9
:10085000000080969800000040420F000000A08633
:1008600001000000102700000000E8030000000065
:100870006400000000000A00000000000100000009
:1008800000002C76D888DC674F0823DFC1DFAE5923
:10089000E1B1B796E5E3E453C63AE651997696E8B6
:1008A000E6C28426EB898C9B62ED407C6FFCEFBC3A
:1008B0009C9F40F2BAA56FA5F490055A2AF75C9365
:1008C0006B6CF9676DC11BFCE0E40D47FEF520E69B
:1008D000B500D0ED902E0300943577050080841E7E
:1008E000080000204E0A000000C80C333333330FD9
:1008F000986E12831141EF8D2114893BE65516CF76
:10090000FEE6DB18D1844B381BF77C1D901DA4BB81
:10091000E424203284725E228100C9F124ECA1E536
:100920003D2711241FBECFEFD8E0DEBFCDBF11E0C1
:10093000A0E0B1E0ECE4FEE202C005900D92A23E20
:10094000B107D9F722E0A2EEB1E001C01D92AA32B0
:10095000B207E1F70E9409060C9424170C940000DA
:100960001F920F920FB60F9211248F939F93809135
:10097000FB019091FC0193959093FC018093FB0106
:100980009F918F910F900FBE0F901F9018951F92FF
:100990000F920FB60F9211248F939F938CE396EFD3
:1009A000909385008093840081E0809305029F915D
:1009B0008F910F900FBE0F901F9018951F920F925E
:1009C0000FB60F9211242F933F934F935F936F9322
:1009D0007F938F939F93AF93BF93EF93FF93409138
:1009E000E7015091E8016091E9017091EA0184E02A
:1009F00090E00E94D4134091FD015091FE0160915E
:100A0000FF017091000280E090E00E94D413FF91FA
:100A1000EF91BF91AF919F918F917F916F915F9176
:100A20004F913F912F910F900FBE0F901F901895EF
:100A30008CE090E00E94B2138A3A71F16AEA8CE08D
:100A400090E00E94C6134091E7015091E801609147
:100A5000E9017091EA0184E090E00E94D413409192
:100A6000FD015091FE016091FF017091000280E054
:100A700090E00E94D41360910101709102018AE01C
:100A800090E00E94DC13609103017091040188E002
:100A900090E00E94DC13089584E090E00E94BA1375
:100AA0006093E7017093E8018093E9019093EA0174
:100AB00080E090E00E94BA136093FD017093FE0104
:100AC0008093FF01909300028AE090E00E94C0139F
:100AD000909302018093010188E090E00E94C0138E
:100AE000909304018093030108951AB888E08BB9AC
:100AF00080E387B918B88EE184B915B8E1E8F0E071
:100B0000808183608083EFE6F0E080818160808374
:100B100082E696EF909385008093840085B5866089
:100B200085BDEEE6F0E0808181608083E9E6F0E05B
:100B3000808182608083E89A0895CF9316BC1092DA
:100B4000FC011092FB010E94E80CC0E080910502BC
:100B50008823E1F3109205020E94E608CF5FCA30B5
:100B600050F026B58091FB019091FC01820F911D00
:100B70000E94010DC0E083E00E94DC08882331F36D
:100B800086B56091FB017091FC01680F711D709337
:100B90000201609301018AE090E00E94DC13109250
:100BA000FC011092FB0116BCCF910895CF93DF9307
:100BB0008091030190910401C82F99270E94220D72
:100BC000DAE0809105028823E1F3109205020E9489
:100BD000E60882E00E94DC08882349F0C43110F462
:100BE000CF5F01C0CD2F8C2F90E00E94220D83E0BB
:100BF0000E94DC08882329F36C2F70E070930401B5
:100C00006093030188E090E00E94DC13DF91CF91B4
:100C100008950E9475050E94840A0E945E0A0E943F
:100C2000800E0E941805789483E00E94FD0965E01B
:100C300080E00E940F0A4B9951C08091E201E82F99
:100C4000F0E0EE0FFF1FEF5FFE4F608171810E94A9
:100C50007D0C4B9BFECF809105028823E1F310921F
:100C600005020E94E60882E00E94DC08882399F0D1
:100C70008091E201823010F48F5F01C080E08093A8
:100C8000E201E82FF0E0EE0FFF1FEF5FFE4F608103
:100C900071810E947D0C83E00E94DC088823D9F2D8
:100CA0000E94800E8091E201813039F018F082308C
:100CB000A9F005C00E949D0502C00E94D6050E94B1
:100CC000800E8091E201E82FF0E0EE0FFF1FEF5F52
:100CD000FE4F608171810E947D0CBDCF0E94430A4E
:100CE0006093F7017093F8018093F9019093FA01F2
:100CF0000E94340A20E030E040E850E40E943A11BB
:100D00006093E3017093E4018093E5019093E60121
:100D100080E00E94870A6091FD017091FE01809140
:100D2000FF01909100020E941C0B609103017091E1
:100D3000040180E090E00E9484106B017C014090EF
:100D4000E3015090E4016090E5017090E60120E03D
:100D500030E040E850E40E943A114B015C012DEC78
:100D60003CEC4CE450E4C701B6010E943A11830107
:100D70007201A50194010E94BD0B2091F3013091F5
:100D8000F4014091F5015091F6016091F7017091E5
:100D9000F8018091F9019091FA010E94AC0A0E9439
:100DA000550BC1E0D1E0772473948091050288232C
:100DB000E1F3109205020E94E60882E00E94DC083E
:100DC000882301F180910001882359F06091E701A7
:100DD0007091E8018091E9019091EA010E94E30A93
:100DE0000AC06091FD017091FE018091FF01909118
:100DF00000020E941C0B872D90910001911180E050
:100E00008093000183E00E94DC088823B9F180917F
:100E100000018823D1F01092FD011092FE01109282
:100E2000FF011092000260E070E0CB010E941C0BF9
:100E30004091FD015091FE016091FF01709100020F
:100E400080E090E00E94D41319C01092E701109244
:100E5000E8011092E9011092EA0160E070E0CB0134
:100E60000E94E30A4091FD015091FE016091FF0153
:100E70007091000280E090E00E94D41380910402FF
:100E80008F5F80930402823331F50E94A30B0E948E
:100E9000340A20E030E040E850E40E943A119B011F
:100EA000AC016093F3017093F4018093F50190938A
:100EB000F6016091EB017091EC018091ED01909150
:100EC000EE010E94880F6093EB017093EC01809318
:100ED000ED019093EE0180910402843608F4DCC0A9
:100EE000109204020E94550B0E94430A6093F7017E
:100EF0007093F8018093F9019093FA012091170201
:100F0000211110C02DEC3CEC4CEC5DEB0E94EC0F81
:100F10008823DCF4709217020E94AB0B80911702B9
:100F2000882399F020E030E0A9016091F7017091E9
:100F3000F8018091F9019091FA010E9436118823FD
:100F400024F0109217020E94B40BC090F701D090C9
:100F5000F801E090F901F090FA0120E030E0A901F9
:100F6000C701B6010E94EC0F882364F4F7FAF094ED
:100F7000F7F8F094C092F701D092F801E092F901ED
:100F8000F092FA012091F7013091F8014091F901B6
:100F90005091FA016091EF017091F0018091F1019F
:100FA0009091F2010E94880F6093EF017093F0011D
:100FB0008093F1019093F20186B56091FB017091ED
:100FC000FC01680F711D80E090E00E9484106B01AD
:100FD0007C016881798180E090E00E94841020E0AB
:100FE00030E040E251E40E94F00F9B01AC01C701E8
:100FF000B6010E94F00F6B017C0116BC1092FC013F
:101000001092FB0120E030E04AE754E40E94F00F28
:101010009B01AC016091FD017091FE018091FF0187
:10102000909100020E94880F6093FD017093FE0171
:101030008093FF019093000226E636E646E650E4F0
:10104000C701B6010E943A110E9458106093010234
:101050002091F3013091F4014091F5015091F60196
:101060006091F7017091F8018091F9019091FA0176
:101070000E94AC0A809101020E94870A80910001BF
:10108000882351F06091FD017091FE018091FF0174
:10109000909100020E941C0B809102029091030229
:1010A000019690930302809302028137974108F4DE
:1010B0007CCE20E030E040E752E46091EF01709197
:1010C000F0018091F1019091F2010E94F00F20E077
:1010D00030E040E752E40E94F00F2091E7013091A8
:1010E000E8014091E9015091EA010E94880F6B01EB
:1010F0007C016093E7017093E8018093E90190938C
:10110000EA0120E030E040E752E46091EB017091A9
:10111000EC018091ED019091EE010E94F00F60933F
:10112000E3017093E4018093E5019093E6018091DF
:101130000001811104C0C701B6010E94E30AE3E087
:10114000F1E06081718180E090E00E9484106B0189
:101150007C012090E3013090E4014090E501509043
:10116000E60120E030E040E850E40E943A114B01F3
:101170005C012DEC3CEC4CE450E4C701B6010E944C
:101180003A1182017101A50194010E94BD0B1092D8
:101190000302109202021092EF011092F0011092DD
:1011A000F1011092F2011092EB011092EC011092F9
:1011B000ED011092EE01F9CD90910802981304C050
:1011C0001092080281E0089580E0089599B193FBA0
:1011D000992790F981E0982790931802809109024D
:1011E0008130B9F018F0823099F13AC09923D9F1E1
:1011F00080910602909107020196909307028093D6
:101200000602049768F181E0809309028093080246
:1012100027C0992399F080910602909107020196C8
:1012200090930702809306028C329140C8F083E0CD
:101230008093080282E08093090212C082E08093CA
:10124000080210920702109206021092090208C0CA
:10125000911106C010920702109206021092090224
:101260008091080208951092070210920602F8CFAA
:1012700080E388B98FE891E00197F1F700C00000A2
:1012800044988FE891E00197F1F700C0000045987D
:10129000089580E288B98FE891E00197F1F700C0E6
:1012A000000044988FE891E00197F1F700C000003A
:1012B000449A089598E0882314F0449801C0449A11
:1012C000EFE8F1E03197F1F700C00000459AEFE850
:1012D000F1E03197F1F700C000004598880F915078
:1012E00051F73C98449A8FE891E00197F1F700C0DC
:1012F0000000459AEFE8F1E03197F1F700C00000F7
:10130000349B06C08FE891E00197F1F700C0000020
:10131000459844983C9A08953C98449A98E080E017
:10132000880F459AEFE8F1E03197F1F700C000002F
:10133000349981604598EFE8F1E03197F1F700C00A
:101340000000915069F744983C9AEFE8F1E031973A
:10135000F1F700C00000459AEFE8F1E03197F1F7AE
:1013600000C00000459808951F93CF93DF93182F76
:10137000C62FD72F0E943809809105010E945A0973
:10138000812F0E945A098D2F0E945A098C2F0E948A
:101390005A090E944909DF91CF911F910895CF9377
:1013A000DF93C82F0E943809809105010E945A09D5
:1013B0008C2F0E945A090E943809809106010E94D0
:1013C0005A090E948C09C82F0E948C09D82F0E94AC
:1013D00049098D2F90E09C2BDF91CF910895CF93F9
:1013E000DF93EC01BC0185E00E94B409D0930B02AD
:1013F000C0930A02DF91CF910895CF93C82F80E068
:101400000E94CF09917F6C2F70E0762F6627770FAF
:10141000682B792B80E00E94B409CF910895CF9377
:10142000DF93D82FC62F80E00E94CF09D11113C0BF
:101430000DC0A90102C0440F551F6A95E2F7BA0119
:10144000682B792B80E00E94B4090BC0877C2C2F7D
:1014500030E063E0EECF8F739E7F2C2F30E066E0AC
:10146000E8CFDF91CF91089582E00E94CF09BC01BF
:1014700080E090E00E9484102AE037ED43EA5AE3CE
:101480000E943A11089580910A0290910B020E94E5
:10149000EF0984E00E94CF09BC01882777FD809581
:1014A000982F0E94861020911002309111024091D5
:1014B0001202509113020E943A11089560E070E800
:1014C00080E00E94B40980E090E0A0E2BBE380935A
:1014D000100290931102A0931202B093130280E0C5
:1014E00090E0AAE7BDE380930C0290930D02A093D5
:1014F0000E02B0930F0281E398E090930B02809369
:101500000A020E94EF0908950E948F0D0895CF935B
:10151000DF93C82F68E080E00E945F0EDDECCD9F76
:10152000D12D1124D695D695D6958D2F0E94000EDB
:10153000DD0F8D2F880F880FD80F8C2F8D1B0E94E9
:10154000000E60E286E00E945F0E88E091E00E945B
:101550006C0FDF91CF910895CF92DF92EF92FF92BF
:101560000F931F93CF93DF9369017A0109E112E092
:1015700021E044E00E949D11CDE1D2E081E490E0C1
:101580009983888360E089E00E945F0EC8010E9411
:101590006C0F21E044E0C701B6010E949D1186E571
:1015A00090E09983888360E189E00E945F0EC80122
:1015B0000E946C0FDF91CF911F910F91FF90EF90E0
:1015C000DF90CF900895CF92DF92EF92FF920F932A
:1015D0001F936B017C0120E030E048EC52E40E9454
:1015E0003611882354F00F2EFDECCF2EFCECDF2EAD
:1015F000F7ECEF2EF2E4FF2EF02D09E112E021E0EE
:1016000044E0C701B6010E949D1181E498E6A0E084
:1016100080931D0290931E02A0931F0268E380E056
:101620000E945F0EC8010E946C0F1F910F91FF90E6
:10163000EF90DF90CF900895CF92DF92EF92FF92DC
:101640000F931F936B017C0120E030E048EC52E4E3
:101650000E943611882354F00F2EFDECCF2EFCECA7
:10166000DF2EF7ECEF2EF2E4FF2EF02D09E112E071
:1016700021E044E0C701B6010E949D118BE69DE682
:10168000A0E080931D0290931E02A0931F0268E3C6
:1016900080E00E945F0EC8010E946C0F1F910F91A5
:1016A000FF90EF90DF90CF900895809107018930EF
:1016B000E1F41092070180911602853091F41092A6
:1016C000160280911502893041F410921502809122
:1016D00014028F5F809314020BC08F5F80931502FA
:1016E00007C08F5F8093160203C08F5F809307014E
:1016F000809107011F928F93809116021F928F9302
:10170000809115021F928F93809114021F928F93E4
:101710008DE091E09F938F9389E192E09F938F9367
:101720000E94BE1168E389E00E945F0E89E192E0A9
:101730000E946C0F8DB79EB70C960FB6F8949EBFA3
:101740000FBE8DBF089568E38BE00E945F0E80E2BC
:101750000E94BD0E089560E080E00E945F0E87E168
:1017600091E00E946C0F089560E080E00E945F0E9F
:101770008CE291E00E946C0F08956F927F928F929D
:101780009F92AF92BF92CF92DF92EF92FF920F9310
:101790001F93CF93DF93662E772ED82FC92F490141
:1017A0005A01262F372F482F592F6E2D7F2D802F2E
:1017B000912F0E94EC0F882324F4E62CF72C0D2F98
:1017C0001C2F262D372D4D2F5C2F6E2D7F2D802F1A
:1017D000912F0E94870F6B017C01262D372D4D2FF5
:1017E0005C2FC501B4010E94870F20E030E040EC7F
:1017F00050E40E94F00F9B01AC01C701B6010E94AA
:10180000F00F6B017C0160E08FE00E945F0E80E2D0
:1018100091E00E946C0F8FE00E94F60DC6E0D0E0D0
:1018200060E070E080E80E94630DBE01882777FDCC
:101830008095982F0E9486109B01AC01C701B601CC
:101840000E9436118823FCF060E070E08EEB0E946D
:10185000630D60E070E08EEB0E94630D60E070E06D
:101860008EEB0E94630D60E070E08EEB0E94630DD2
:1018700060E070E08EEB0E94630D60E070E08EEB44
:101880000E94630D1EC060E070E080E80E94630D5E
:1018900060E070E080E80E94630D60E070E080E846
:1018A0000E94630D60E070E080E80E94630D60E0DC
:1018B00070E080E80E94630D60E070E080E80E94C4
:1018C000630D60E070E080E80E94630D219720972F
:1018D00009F0A6CF82E291E00E946C0FDF91CF91D8
:1018E0001F910F91FF90EF90DF90CF90BF90AF903E
:1018F0009F908F907F906F9008951F93CF93DF9369
:10190000C82FD62F172F60E086E00E945F0E83E974
:1019100091E00E946C0F60E180E00E945F0E84E223
:1019200091E00E946C0F68E180E00E945F0EC2307F
:10193000E1F01F93DF9325E331E03F932F9329E1FB
:1019400032E03F932F930E94BE1189E192E00E9402
:101950006C0F0F900F900F900F900F900F90C13061
:1019600091F040F0C23001F517C084E291E00E948E
:101970006C0F12C060E180E00E945F0E8FE391E087
:101980000E946C0F11C060E180E00E945F0E8FE446
:1019900091E00E946C0F08C060E183E00E945F0E3E
:1019A0008FE591E00E946C0F60E380E00E945F0E83
:1019B0008AE691E00E946C0F68E380E00E945F0E6F
:1019C0008BE791E00E946C0FDF91CF911F910895FA
:1019D00060E082E00E945F0E8CE891E00E946C0F54
:1019E00060E180E00E945F0E89E991E00E946C0F47
:1019F00060E280E00E945F0E8AEA91E00E946C0F34
:101A00000895CF93DF93C82FD92F68E380E00E9419
:101A10005F0EDF93CF938BEB91E09F938F9389E1E0
:101A200092E09F938F930E94BE1189E192E00E9401
:101A30006C0F0F900F900F900F900F900F90DF9101
:101A4000CF910895CF93DF93C82FD92F60E080E026
:101A50000E945F0E85EC91E00E946C0F68E380E0CD
:101A60000E945F0EDF93CF9386ED91E09F938F935B
:101A700089E192E09F938F930E94BE1189E192E0E9
:101A80000E946C0F0F900F900F900F900F900F907F
:101A9000DF91CF9108952B98299898E02B9888236F
:101AA00014F02C9801C02C9A880F25E02A95F1F7A4
:101AB00000002B9A25E02A95F1F70000915071F76C
:101AC0002B982C9808952B986130710511F4299A60
:101AD00023C0299821C02B98882314F02C9801C08A
:101AE0002C9A880F25E02A95F1F700002B9A25E023
:101AF0002A95F1F70000915071F72B982C98672BDD
:101B000069F4809129028F3320F48F5F809329023A
:101B1000089510922902089598E0DDCF08952A983B
:101B20002B982C9829988FE39CE90197F1F700C036
:101B300000002A9A8FE99FE00197F1F700C00000AA
:101B400061E070E081EB0E94630D8FE99FE00197F7
:101B5000F1F700C0000061E070E082EB0E94630DCD
:101B600061E070E081E80E94630D8FE99FE00197DA
:101B7000F1F700C0000061E070E08CED0E94630DA1
:101B800061E070E083E90E94630D61E070E082EA49
:101B90000E94630D089561E070E080E00E94630D93
:101BA00061E070E080E20E94630D61E070E080E33C
:101BB0000E94630D10922802109229020895CF937B
:101BC000C82F803488F4809329028F7061E070E020
:101BD000805E0E94630DC0778C2F82958F7061E0CC
:101BE00070E0805D0E94630DCF910895803138F4DC
:101BF0008093280261E070E08F700E94630D089569
:101C00009F92AF92BF92CF92DF92EF92FF920F938B
:101C10001F93CF93DF93909029028A3008F043C03E
:101C200090E6899F8001112461E070E081EA0E94C2
:101C3000630DE801C859DF4FF801E853FF4F5F011A
:101C40000F2EF8E2CF2EF2E0DF2EF02D0F2EF9E26C
:101C5000EF2EF2E0FF2EF02D15C0FE0184910E94C0
:101C60004B0D2196C017D107C1F7F60180810E9464
:101C7000F60DF70180818F5F0E94DF0D0A151B05AD
:101C800029F0E8018E010D5F1F4FE7CF61E070E0A2
:101C900082EA0E94630D809128028D5F0E94F60DFA
:101CA000892D0E94DF0DDF91CF911F910F91FF9041
:101CB000EF90DF90CF90BF90AF909F900895CF931B
:101CC000C62F8031D8F46034C8F48093280261E0D4
:101CD00070E08F700E94630DC09329028C2F8F706B
:101CE00061E070E0805E0E94630DC0778C2F82956A
:101CF0008F7061E070E0805D0E94630DCF91089568
:101D0000CF93DF9361E070E080E00E94630D61E0BB
:101D100070E080E20E94630D61E070E080E30E9469
:101D2000630D61E070E083EA0E94630DC0E0D0E0E3
:101D300063E070E080E00E94630D2196C11584E0AD
:101D4000D807B1F761E070E082EA0E94630D61E0BC
:101D500070E080E00E94630D61E070E080E20E942C
:101D6000630D61E070E080E30E94630D1092280231
:101D700010922902DF91CF910895DF92EF92FF92A6
:101D80000F931F93CF93DF938A30A1F480E00E94DA
:101D9000F60D80912902282F30E0275F3F4F2F3327
:101DA000310524F4885F0E94DF0D8EC080E00E9420
:101DB000DF0D8AC090EE980F903C08F085C0282F68
:101DC00030E02052310979018FE1E82280E8F822E1
:101DD000FF2054F481E0E81AF10880EEE82AFF249D
:101DE000FA948FEFE81AF80AD09029028901332378
:101DF00014F4015E1F4F15950795159507951595D8
:101E000007951595079515950795C0E0D0E0FF2437
:101E1000EE0CFF1CEE0CFF1CEE0CFF1C013011053C
:101E2000B9F024F40115110541F032C0023011055A
:101E3000D1F00330110511F12BC0F701EC0FFD1F9C
:101E4000E85DF84F849160E070E00E94630D20C06F
:101E5000F701EC0FFD1FE85DF94F849160E070E041
:101E60000E94630D15C0F701EC0FFD1FE85DFA4FEE
:101E7000849160E070E00E94630D0AC0F701EC0FEE
:101E8000FD1FE85DFB4F849160E070E00E94630DF0
:101E90002196C830D10509F0C1CF809128028F303A
:101EA00048F48D2D0E94DF0D809128028F5F0E94E3
:101EB000F60D0AC080912902811103C00E94CB0D4A
:101EC00003C080E00E94F60DDF91CF911F910F912A
:101ED000FF90EF90DF9008950F931F93CF93DF93C0
:101EE000FC0101900020E9F73197E81BF90B51F054
:101EF000EC018C010E0F1F1F89910E94BD0EC017AF
:101F0000D107D1F7DF91CF911F910F9108955058CC
:101F1000BB27AA270ED070C161D130F066D120F066
:101F200031F49F3F11F41EF456C10EF4E095E7FB27
:101F30004CC1E92F72D180F3BA1762077307840787
:101F4000950718F071F49EF58AC10EF4E0950B2EFA
:101F5000BA2FA02D0B01B90190010C01CA01A001FB
:101F60001124FF27591B99F0593F50F4503E68F156
:101F70001A16F040A22F232F342F4427585FF3CF97
:101F8000469537952795A795F0405395C9F77EF468
:101F90001F16BA0B620B730B840BBAF09150A1F0B1
:101FA000FF0FBB1F661F771F881FC2F70EC0BA0F37
:101FB000621F731F841F48F4879577956795B795BF
:101FC000F7959E3F08F0B3CF9395880F08F09927B7
:101FD000EE0F979587950895D4D008F481E0089581
:101FE0000CD00AC102D140F0F9D030F021F45F3FAB
:101FF00019F0EBC0511134C1EEC00FD198F3992301
:10200000C9F35523B1F3951B550BBB27AA276217BC
:102010007307840738F09F5F5F4F220F331F441F01
:10202000AA1FA9F333D00E2E3AF0E0E830D0915039
:102030005040E695001CCAF729D0FE2F27D0660F26
:10204000771F881FBB1F261737074807AB07B0E865
:1020500009F0BB0B802DBF01FF2793585F4F2AF07B
:102060009E3F510568F0B1C0FBC05F3FECF3983E66
:10207000DCF3869577956795B795F7959F5FC9F7D8
:10208000880F911D9695879597F90895E1E0660F61
:10209000771F881FBB1F621773078407BA0720F0DA
:1020A000621B730B840BBA0BEE1F88F7E095089543
:1020B000BCD088F09F5790F0B92F9927B751A0F066
:1020C000D1F0660F771F881F991F1AF0BA95C9F7CC
:1020D00012C0B13081F0C3D0B1E00895C0C0672F05
:1020E000782F8827B85F39F0B93FCCF3869577957C
:1020F0006795B395D9F73EF4909580957095619565
:102100007F4F8F4F9F4F0895E89409C097FB3EF48F
:1021100090958095709561957F4F8F4F9F4F992334
:10212000A9F0F92F96E9BB279395F69587957795B2
:102130006795B795F111F8CFFAF4BB0F11F460FF72
:102140001BC06F5F7F4F8F4F9F4F16C0882311F0CA
:1021500096E911C0772321F09EE8872F762F05C0DE
:10216000662371F096E8862F70E060E02AF09A9579
:10217000660F771F881FDAF7880F9695879597F96E
:102180000895990F0008550FAA0BE0E8FEEF161608
:102190001706E807F907C0F012161306E407F5075B
:1021A00098F0621B730B840B950B39F40A2661F0CF
:1021B000232B242B252B21F408950A2609F4A14072
:1021C000A6958FEF811D811D089597F99F6780E87F
:1021D00070E060E008959FEF80EC089500240A9479
:1021E0001616170618060906089500240A941216F2
:1021F0001306140605060895092E0394000C11F425
:10220000882352F0BB0F40F4BF2B11F460FF04C0D1
:102210006F5F7F4F8F4F9F4F089557FD9058440F2A
:10222000551F59F05F3F71F04795880F97FB991F35
:1022300061F09F3F79F087950895121613061406F2
:10224000551FF2CF4695F1DF08C01616170618067F
:10225000991FF1CF86957105610508940895E8945A
:10226000BB2766277727CB0197F908958ADF08F403
:102270008FEF08950BD0C0CFB1DF28F0B6DF18F094
:10228000952309F0A2CFA7CF1124EACFC6DFA0F390
:10229000959FD1F3950F50E0551F629FF001729FFB
:1022A000BB27F00DB11D639FAA27F00DB11DAA1F1A
:1022B000649F6627B00DA11D661F829F2227B00D67
:1022C000A11D621F739FB00DA11D621F839FA00DF2
:1022D000611D221F749F3327A00D611D231F849F42
:1022E000600D211D822F762F6A2F11249F57504099
:1022F0008AF0E1F088234AF0EE0FFF1FBB1F661F34
:10230000771F881F91505040A9F79E3F510570F0EC
:102310005CCFA6CF5F3FECF3983EDCF386957795D4
:102320006795B795F795E7959F5FC1F7FE2B880FE7
:10233000911D9695879597F90895EF920F931F93A6
:10234000CF93DF93E80147FF02C034E101C034E0DE
:10235000E42FFF27E7FDF095F7FF03C0F195E19526
:10236000F109E32E022F2E2FAE010E94E113CE01C0
:10237000DF91CF911F910F91EF900895AEE0B0E003
:10238000E4ECF1E10C94FB160D891E8986E08C8348
:102390001A8309838FEF9FE79E838D83AE01475E8B
:1023A0005F4F6F89788DCE0101960E94E011EF8119
:1023B000F885E00FF11F10822E96E4E00C941717B9
:1023C000ACE0B0E0E6EEF1E10C94ED167C016B01BF
:1023D0008A01FC0117821682838181FFBDC1CE0173
:1023E00001964C01F7019381F60193FD859193FFCE
:1023F00081916F01882309F4ABC1853239F493FDD3
:10240000859193FF81916F01853229F4B70190E0A6
:102410000E944D16E7CF512C312C20E02032A0F441
:102420008B3269F030F4803259F0833269F42061E4
:102430002CC08D3239F0803339F4216026C02260FF
:10244000246023C0286021C027FD27C030ED380F4D
:102450003A3078F426FF06C0FAE05F9E300D112472
:10246000532E13C08AE0389E300D1124332E206283
:102470000CC08E3221F426FD6BC1206406C08C3660
:1024800011F4206802C0883641F4F60193FD85916D
:1024900093FF81916F018111C1CF982F9F7D95543A
:1024A000933028F40C5F1F4FFFE3F9830DC0833690
:1024B00031F0833771F0833509F05BC022C0F80139
:1024C000808189830E5F1F4F44244394512C540113
:1024D00015C03801F2E06F0E711CF801A080B180C8
:1024E00026FF03C0652D70E002C06FEF7FEFC501CE
:1024F0002C870E9442162C0183012C852F77222ED7
:1025000017C03801F2E06F0E711CF801A080B18095
:1025100026FF03C0652D70E002C06FEF7FEFC5019D
:102520002C870E9437162C012C852068222E8301CF
:1025300023FC1BC0832D90E048165906B0F4B70168
:1025400080E290E00E944D163A94F4CFF50127FC0A
:10255000859127FE81915F01B70190E00E944D16A1
:1025600031103A94F1E04F1A51084114510471F7B7
:10257000E5C0843611F0893639F5F80127FF07C028
:1025800060817181828193810C5F1F4F08C06081DF
:102590007181882777FD8095982F0E5F1F4F2F76CA
:1025A000B22E97FF09C090958095709561957F4FE9
:1025B0008F4F9F4F2068B22E2AE030E0A4010E9486
:1025C0007F16A82EA81844C0853729F42F7EB22E76
:1025D0002AE030E025C0F22FF97FBF2E8F36C1F000
:1025E00018F4883579F0B4C0803719F0883721F0B5
:1025F000AFC02F2F2061B22EB4FE0DC08B2D846092
:10260000B82E09C024FF0AC09F2F9660B92E06C0BD
:1026100028E030E005C020E130E002C020E132E0F7
:10262000F801B7FE07C060817181828193810C5FE0
:102630001F4F06C06081718180E090E00E5F1F4FE8
:10264000A4010E947F16A82EA818FB2DFF77BF2E8D
:10265000B6FE0BC02B2D2E7FA51450F4B4FE0AC07D
:10266000B2FC08C02B2D2E7E05C07A2C2B2D03C06A
:102670007A2C01C0752C24FF0DC0FE01EA0DF11D5E
:102680008081803311F4297E09C022FF06C0739433
:10269000739404C0822F867809F0739423FD13C0CD
:1026A00020FF06C05A2C731418F4530C5718732CBF
:1026B000731468F4B70180E290E02C870E944D16F5
:1026C00073942C85F5CF731410F4371801C0312C96
:1026D00024FF12C0B70180E390E02C870E944D16C2
:1026E0002C8522FF17C021FF03C088E590E002C0BF
:1026F00088E790E0B7010CC0822F867859F021FD61
:1027000002C080E201C08BE227FD8DE2B70190E0BC
:102710000E944D16A51438F4B70180E390E00E94A2
:102720004D165A94F7CFAA94F401EA0DF11D808159
:10273000B70190E00E944D16A110F5CF332009F4A7
:1027400051CEB70180E290E00E944D163A94F6CF48
:10275000F7018681978102C08FEF9FEF2C96E2E10F
:102760000C940917F999FECF92BD81BDF89A99276B
:1027700080B50895A6E1B0E044E050E00C94DF1687
:10278000A8E1B0E042E050E00C94DF16262FF99962
:10279000FECF1FBA92BD81BD20BD0FB6F894FA9A44
:1027A000F99A0FBE01960895242F0E94C713252F72
:1027B0000E94C7130C94DC130E94C613272F0C949D
:1027C000C7136F927F929F92AF92BF92CF92DF9288
:1027D000EF92FF920F931F93CF93DF93CDB7DEB7A6
:1027E00029970FB6F894DEBF0FBECDBF6A01B22E97
:1027F000102F0C3320F4FF24F394F00E02C04CE3AE
:10280000F42E0F2D27E0AE014F5F5F4F0E945F1542
:102810007981272F2970213031F0E1FC06C0E0FCDE
:1028200006C060E005C06DE203C06BE201C060E27B
:10283000AE2DA07173FF36C0662311F084E001C095
:1028400083E08B1510F4B81A01C0B12CA1110BC094
:10285000F6018B2D90E2882319F091938150FBCFE4
:10286000CB0CD11CB12C662331F0F60160839601AC
:102870002F5F3F4F6901C6010396E2FE05C02EE4BB
:10288000F601208331E404C02EE6F601208331E610
:1028900031832283FC012B2D30E22223F1F131938D
:1028A0002150FBCF72FF40C0662311F084E001C0CD
:1028B00083E08B1510F4B81A01C0B12CA1110BC024
:1028C000F6018B2D90E2882319F091938150FBCF74
:1028D000CB0CD11CB12C662331F0F601608396013C
:1028E0002F5F3F4F6901C6010396E2FE07C029E44E
:1028F000F60120832EE4218326E406C029E6F601B2
:1029000020832EE6218326E62283FC012B2D30E254
:10291000222319F031932150FBCFFC01EB0DF11D67
:1029200010828EEF9FEFB7C0B1E0611101C0B0E03F
:102930004B2F50E01816190624F49C012F5F3F4FCF
:1029400002C021E030E0240F351F112329F0412F70
:1029500050E04F5F5F4F02C040E050E0420F531F16
:102960002B2D30E04217530714F4B41A01C0B12CD8
:102970002E2D287159F4F6012B2D30E2222319F067
:1029800031932150FBCFCB0CD11CB12CBB2331F0A8
:10299000F601608396012F5F3F4F6901A1110BC0C3
:1029A000F6012B2D30E3222319F031932150FBCF78
:1029B000CB0CD11CB12CF80E0A81372F3071A32E0D
:1029C00074FF03C0013309F4FA941F142CF42F2D63
:1029D000293018F028E001C021E0682F392F97FF37
:1029E00002C060E030E0462F532F612C712C3EE294
:1029F000932EBC01621B71099B01DC01A41BB50B6A
:102A0000E1E0F0E0EC0FFD1FAE0FBF1FE12EF12C57
:102A1000F194E194F1084F3FFFEF5F0731F4F601C5
:102A20009082B6016F5F7F4F6B01841795074CF062
:102A30002417350734F4BD01660D771DFB011181A4
:102A400001C010E341505109FFEF6F1A7F0AB60130
:102A50006F5F7F4F4E155F0524F0F60110836B0109
:102A6000DACF4817590739F4063320F4053319F43F
:102A7000A11001C011E3F6011083FB018B2D90E240
:102A8000882319F091938150FBCFFB01EB0DF11DD1
:102A9000108280E090E029960FB6F894DEBF0FBE5A
:102AA000CDBFDF91CF911F910F91FF90EF90DF90FD
:102AB000CF90BF90AF909F907F906F9008952830F7
:102AC00008F027E03327DA01990F311D87FD916067
:102AD00000966105710539F432602E5F3D9330E355
:102AE0002A95E1F708959F3F30F080387105610520
:102AF00009F03C5F3C5F3D93913008F08068911D88
:102B0000DF93CF931F930F93FF92EF92192F987F2C
:102B10009695E92F96959695E90FFF27EE57F74F73
:102B200099273327EE24FF24A701E7010590089495
:102B3000079428F4360FE71EF81E491F511D660F33
:102B4000771F881F991F0694A1F70590079428F412
:102B5000E70EF81E491F561FC11D770F881F991FCA
:102B6000661F0694A1F70590079428F4F80E491FF4
:102B7000561FC71FD11D880F991F661F771F069408
:102B8000A1F70590079420F4490F561FC71FD81FBF
:102B9000990F661F771F881F0694A9F784911095D7
:102BA000177041F0D695C79557954795F794E794D8
:102BB0001A95C1F7E8E2F8E06894159015913591FF
:102BC0006591959105907FE27395E118F10A430BA9
:102BD000560BC90BD009C0F7E10CF11E431F561F5D
:102BE000C91FD01D7EF4703311F48A95E6CFE894A6
:102BF000015030F0080F0AF40027021708F4202FC4
:102C00002395022F7A3328F079E37D932A95E9F70B
:102C100010C07D932A9589F6069497956795379508
:102C200017951794E118F10A430B560BC90BD009FD
:102C300098F023957E9173957A3308F070E37C9336
:102C40002013B8F77E9170617D9330F0839571E326
:102C50007D9370E32A95E1F71124EF90FF900F9197
:102C60001F91CF91DF91992787FD90950895FC01E1
:102C70000590615070400110D8F7809590958E0FA7
:102C80009F1F0895FC016150704001900110D8F71A
:102C9000809590958E0F9F1F08950F931F93CF934C
:102CA000DF93182F092FEB018B8181FD03C08FEF7C
:102CB0009FEF20C082FF10C04E815F812C813D813B
:102CC000421753077CF4E881F9819F012F5F3F4F42
:102CD00039832883108306C0E885F985812F0995FB
:102CE000892B29F72E813F812F5F3F4F3F832E8312
:102CF000812F902FDF91CF911F910F910895FA01AD
:102D0000AA27283051F1203181F1E8946F936E7F2A
:102D10006E5F7F4F8F4F9F4FAF4FB1E03ED0B4E01B
:102D20003CD0670F781F891F9A1FA11D680F791F5C
:102D30008A1F911DA11D6A0F711D811D911DA11D6D
:102D400020D009F468943F912AE0269F112430197D
:102D5000305D3193DEF6CF010895462F4770405D18
:102D60004193B3E00FD0C9F7F6CF462F4F70405DC7
:102D70004A3318F0495D31FD4052419302D0A9F722
:102D8000EACFB4E0A6959795879577956795BA951C
:102D9000C9F700976105710508959B01AC010A2EE2
:102DA00006945795479537952795BA95C9F7620FB9
:102DB000731F841F951FA01D0895DC01CB01FC012A
:102DC000F999FECF06C0F2BDE1BDF89A319600B484
:102DD0000D9241505040B8F708952F923F924F9274
:102DE0005F926F927F928F929F92AF92BF92CF929B
:102DF000DF92EF92FF920F931F93CF93DF93CDB7A4
:102E0000DEB7CA1BDB0B0FB6F894DEBF0FBECDBF1B
:102E100009942A88398848885F846E847D848C84EC
:102E20009B84AA84B984C884DF80EE80FD800C81F5
:102E30001B81AA81B981CE0FD11D0FB6F894DEBFD8
:0C2E40000FBECDBFED010895F894FFCF48
:102E4C00010A000A008081FF6B6D2F680025642544
:102E5C00643A25642564004368617267696E670093
:102E6C0046004C0020202020202020202020202044
:102E7C002020202000637572723A202564200053B4
:102E8C00706565642063616C6962722D6F6E0042BF
:102E9C0061742E2063656C6C2073657475700045CD
:102EAC00786974205365747570006C6F6E67207050
:102EBC0072657373202D3E5965730073686F72745D
:102ECC002070726573732D3E4E6F20005350454534
:102EDC004420205345545550004D6F7665203130B9
:102EEC00206D65746572732E2E0061667465722098
:102EFC006C6F6E672070726573730050756C7365C0
:102F0C003A20256400424154542043454C4C202027
:102F1C0053455455500043656C6C733A202564201E
:022F2C000000A3
:00000001FF
